:0A185500000102020303040405056C
:1011F000C20AC204D209C205120D3A7537107538F9
:101200000075421075431275351075361C753F1008
:1012100075404A754C10754D78D2E843D82090E659
:1012200068E04409F090E65CE04435F0D2AF90E627
:1012300080E020E105D20B12162790E680E054F7FB
:10124000F0538EF8C20A121656E4F544F513FBADBE
:101250004E7F0F12180A300505120A2DC205052E01
:0E126000E52E7002052D452D70ECB28380E85E
:100A2D0090E6B9E07003020AD3147003020B482458
:100A3D00FE7003020BC324FB7003020ACD14607A0F
:100A4D0014606B14606E24056003020C1E90E6BBEF
:100A5D00E024FE602214603324FD60111460222412
:100A6D00067048E53790E6B3F0E5388037E54290FB
:100A7D00E6B3F0E543802DE53990E6B3F0E53A8035
:100A8D0023E53D90E6B3F0E53E801990E6BAE0FF30
:100A9D00121683AA06A9077B01EA494B600DEE9059
:100AAD00E6B3F0EF90E6B4F0020C2A020C23121715
:100ABD00F8020C2A121867020C2A12185F020C2A6F
:100ACD001217E6020C2A90E6B8E0247F6015146038
:100ADD001924027063A204E43325E0FFA209E43374
:100AED004F8041E490E740F0803F90E6BCE0547EBB
:100AFD00FF7E00E0D394807C0040047D0180027D68
:100B0D0000EC4EFEED4F2455F58274183EF583E44E
:100B1D0093FF3395E0FEEF24A1FFEE34E68F82F5CF
:100B2D0083E0540190E740F0E4A3F090E68AF09062
:100B3D00E68B7402F0020C2A020C2390E6B8E02436
:100B4D00FE601624026003020C2A90E6BAE0B4019E
:100B5D0005C204020C2A020C2390E6BAE0705590EF
:100B6D00E6BCE0547EFF7E00E0D394807C00400420
:100B7D007D0180027D00EC4EFEED4F2455F5827413
:100B8D00183EF583E493FF3395E0FEEF24A1FFEECD
:100B9D0034E68F82F583E054FEF090E6BCE054809D
:100BAD00131313541FFFE0540F2F90E683F0E0440E
:100BBD0020F08069806090E6B8E024FE601A24027F
:100BCD00705B90E6BAE0B40104D204805090E6BAAE
:100BDD00E0B402028047803E90E6BCE0547EFF7E8A
:100BED0000E0D394807C0040047D0180027D00EC08
:100BFD004EFEED4F2455F58274183EF583E493FFB8
:100C0D003395E0FEEF24A1FFEE34E68F82F583806D
:100C1D0008120056500790E6A0E04401F090E6A0BF
:040C2D00E04480F02F
:010C310022A0
:03003300020006C2
:0400060053D8EF32AA
:10063700055572D09CB1B2A7C03AC97FD02CD53C22
:10064700D93BDC69DF10E144E323E4C0E629E76531
:10065700E87EE977EA57EB22EBDCEC83ED1EEDACA5
:10066700EE2EEEA7EF17EF81EFE3F03FF095F0E7FF
:10067700F133F17CF1C1F201F23FF27AF2B2F2E822
:10068700F31AF34BF37AF3A6F3D1F3FAF422F4480F
:10069700F46DF490F4B2F4D3F4F2F511F52FF54CB0
:1006A700F568F583F59DF5B7F5CFF5E7F5FFF61591
:1006B700F62CF641F656F66BF67EF692F6A5F6B7E9
:1006C700F6CAF6DBF6ECF6FDF70EF71EF72DF73D4B
:1006D700F74CF75BF769F778F786F793F7A1F7AE6B
:1006E700F7BBF7C8F7D4F7E0F7ECF7F8F804F80F1B
:1006F700F81AF825F830F83AF845F84FF85AF86339
:10070700F86DF877F880F88AF893F89CF8A5F8AEB2
:10071700F8B7F8BFF8C8F8D0F8D8F8E1F8E9F8F072
:10072700F8F8F900F908F90FF916F91EF925F92C67
:10073700F933F93AF941F948F94EF955F95CF96293
:10074700F968F96FF975F97BF981F987F98DF993EB
:10075700F999F99FF9A4F9AAF9B0F9B5F9BBF9C064
:10076700F9C6F9CBF9D0F9D6F9DBF9E0F9E5F9EAF9
:10077700F9EFF9F4F9F8F9FDFA02FA07FA0CFA10A9
:10078700FA15FA19FA1EFA22FA27FA2BFA2FFA346F
:10079700FA38FA3CFA40FA45FA49FA4DFA51FA554D
:1007A700FA59FA5DFA61FA65FA69FA6CFA70FA743D
:1007B700FA78FA7CFA7FFA83FA86FA8AFA8EFA913D
:1007C700FA95FA98FA9CFA9FFAA2FAA6FAA9FAAD4C
:1007D700FAB0FAB3FAB6FABAFABDFAC0FAC3FAC669
:1007E700FAC9FACCFAD0FAD3FAD6FAD9FADCFADF90
:1007F700FAE2FAE4FAE7FAEAFAEDFAF0FAF3FAF6C5
:10080700FAF8FAFBFAFEFB01FB03FB06FB09FB0BFD
:10081700FB0EFB11FB13FB16FB19FB1BFB1EFB203F
:10082700FB23FB25FB28FB2AFB2DFB2FFB32FB348D
:10083700FB36FB39FB3BFB3DFB40FB42FB45FB47E4
:10084700FB49FB4BFB4EFB50FB52FB54FB57FB5941
:10085700FB5BFB5DFB5FFB61FB64FB66FB68FB6AA5
:10086700FB6CFB6EFB70FB72FB74FB76FB78FB7A11
:10087700FB7CFB7EFB80FB82FB84FB86FB88FB8A81
:10088700FB8CFB8EFB90FB92FB94FB95FB97FB99F4
:10089700FB9BFB9DFB9FFBA0FBA2FBA4FBA6FBA86E
:1008A700FBA9FBABFBADFBAFFBB0FBB2FBB4FBB5EE
:1008B700FBB7FBB9FBBBFBBCFBBEFBC0FBC1FBC370
:1008C700FBC4FBC6FBC8FBC9FBCBFBCDFBCEFBD0F8
:1008D700FBD1FBD3FBD5FBD6FBD8FBD9FBDBFBDC82
:1008E700FBDEFBDFFBE1FBE2FBE4FBE5FBE7FBE811
:1008F700FBEAFBEBFBEDFBEEFBEFFBF1FBF2FBF4A3
:10090700FBF5FBF7FBF8FBF9FBFBFBFCFBFEFBFF37
:10091700FC00FC02FC03FC04FC06FC07FC08FC0AC8
:10092700FC0BFC0CFC0EFC0FFC10FC12FC13FC1463
:10093700FC15FC17FC18FC19FC1AFC1CFC1DFC1E02
:10094700FC20FC21FC22FC23FC24FC26FC27FC28A1
:10095700FC29FC2BFC2CFC2DFC2EFC2FFC30FC3244
:10096700FC33FC34FC35FC36FC37FC39FC3AFC3BE9
:10097700FC3CFC3DFC3EFC3FFC40FC41FC43FC4492
:10098700FC45FC46FC47FC48FC49FC4AFC4BFC4C3C
:10099700FC4DFC4FFC50FC51FC52FC53FC54FC55E5
:1009A700FC56FC57FC58FC59FC5AFC5BFC5CFC5D94
:1009B700FC5EFC5FFC60FC61FC62FC63FC64FC6544
:1009C700FC66FC67FC68FC69FC6AFC6BFC6CFC6DF4
:1009D700FC6EFC6FFC70FC71FC71FC72FC73FC74A8
:1009E700FC75FC76FC77FC78FC79FC7AFC7BFC7C5C
:1009F70015B4D37BE547EC04EF90F1C4F345F45D00
:100A0700F532F5DBF664F6D6F735F788F7CF000051
:100A17000000435453010002000F090000010000C9
:060A270000450000000084
:100D3A0090E600E054E74410F000000090E60174E9
:100D4A0043F000000090E61074A0F000000090E666
:100D5A0011F000000090E612F000000090E6147412
:100D6A00E0F000000090E6137402F000000090E644
:100D7A0015F000000090E6047480F0000000740290
:100D8A00F00000007404F00000007406F000000097
:100D9A007408F0000000E4F000000090E60274C459
:100DAA00F000000090E6037418F0000000E490E6FA
:100DBA0018F00000007411F0000000758E3990E6FA
:100DCA00707440F075B2FB758003E490E671F075BB
:100DDA00B49F75A00E90E672F075B6BD75B10C752C
:100DEA008911C28CD2A9C28ED2ABF5C8D2AD121863
:100DFA006F90E678E05410C4540F4450F5261392CD
:090E0A000890E67AE04401F022B0
:08185F0090E6BAE0F556D32231
:1017E60090E740E556F0E490E68AF090E68B04F048
:0217F600D322FC
:0818670090E6BAE0F555D3222A
:1017F80090E740E555F0E490E68AF090E68B04F037
:02180800D322E9
:1000560090E6B9E012133704B1A204B1A304ACA927
:10006600026EB002B3B102B8B202C5B302CBB4029B
:10007600D2B50306B6030DB7031CB80324B9035360
:10008600BA0359BB035FBC0389BD032DBE03DBBFA7
:100096000249C1026AC203ABC403EEC90410CA0016
:1000A600D4D100CAD20128D3015ED4018CD501B1C6
:1000B600D601CAD701E3D80204DB0235DC045EDFD1
:1000C6000000063390E6A0E020E1F90201F490E694
:1000D600A0E020E1F990E740E54EF0A3E580F0A32B
:1000E600E5A0F0A3E5B0F0A3E5B1F090E680E0303E
:1000F600E70890E7457401F08005E490E745F09045
:10010600E7467415F0A3E544F0A37409F0A374520E
:10011600F0E4A3F0A3F090E68AF090E68B740C026C
:1001260004A190E6A0E020E1F9E4F513FBFD7F06CB
:1001360012180A908000E090E742F0908000E0906C
:10014600E741F0908000E090E740F0E490E68AF026
:1001560090E68B74030204A190E6A0E020E1F9E4A6
:10016600F513FBFD7F0C12180A908000E090E74023
:10017600F0908000E090E741F0E490E68AF090E6A7
:100186008B74020204A190E6A0E020E1F9E4F513E5
:10019600FBFD7F1012180A908000E090E740F0E423
:1001A60090E68AF090E68B040204A190E6A0E02097
:1001B600E1F990E740E533F0E490E68AF090E68BCB
:1001C600040204A190E6A0E020E1F990E740E534BE
:1001D600F0E490E68AF090E68B040204A190E6A093
:1001E600E020E1F9E534B401FBE533B401FBE4902A
:1001F600E740F090E68AF090E68B040204A190E6D0
:10020600A0E020E1F975080A750929750E00750F39
:1002160010AD0F7AE779407F40AB07AF09AE081201
:100226000FB8E490E68AF090E68B74100204A19071
:10023600E6A0E020E1F9E490E68AF090E68B74030C
:100246000204A1E490E68AF090E68BF090E6A0E046
:1002560020E1F9D20690E740E0B40104D207805DC0
:10026600C2078059D2028055E490E68AF090E68B68
:10027600F090E6A0E020E1F990E741E0750A00F58C
:100286000BA3E0FEEE420AA3E0750C00F50DA3E019
:10029600FEEE420C90E740E024FF920B850A1085A3
:1002A6000B11850C12850D131210B8801012001E4A
:1002B6008060754E0E1211514003754E048053E452
:1002C600F533020453753301E4020453E490E68ADD
:1002D600F090E68BF090E6A0E020E1F990E741E0AF
:1002E600750C00F50DA3E0FEEE420C90E740E0240D
:1002F600FF920B850C11850D121213BDE4020453F7
:10030600120036E4020453754E0F121407400375AB
:100316004E05E4020453C2A7E4F534020453D2A7FF
:10032600753401E4020453E490E68AF090E68BF01B
:1003360090E6A0E020E1F990E740E0FFA3E0FDA30E
:10034600E0FBA3E0F51312180AE4020453C2A1E489
:10035600020453D2A1E4020453E490E68AF090E644
:100366008BF090E6A0E020E1F990E740E0750C0004
:10037600F50DA3E0FEEE420CAF0DAE0C121704E431
:10038600020453E490E68AF090E68BF090E6A0E053
:1003960020E1F990E740E0700553B1EF800343B1E7
:1003A60010E4020453E490E68AF090E68BF090E6BF
:1003B600A0E020E1F975080A750929750E00750F88
:1003C60010AD0F7AE779407F40AB07AF09AE081250
:1003D60014E2E48078E490E68AF090E68BF090E60A
:1003E600A0E020E1F9E48065E490E68AF090E68BEF
:1003F600F090E6A0E020E1F990E740E0754500F5D1
:1004060046A3E0FEEE4245E48043E490E68AF0909F
:10041600E68BF090E6A0E020E1F9E4F50AF50B742E
:1004260040250BF582E434E7F583E0FDAF46AE45A3
:1004360012171C0546E54670020545050BE50B70CF
:1004460002050AC39410E50A940040D3E490E68AB4
:10045600F090E68BF002063590E6A0E020E1F9E4A4
:10046600F50AF50BAF46AE451216AF7440250BF5EF
:1004760082E434E7F583EFF00546E546700205456C
:10048600050BE50B7002050AC39410E50A940040BB
:10049600D3E490E68AF090E68B7410F090E6A0E044
:1004A6004480F0020635D20843260190E6BAE0758C
:1004B6000800F509A3E0FEEE420890E6BEE0750CE2
:1004C60000F50DA3E0FEEE420C90E6B8E064C060D5
:1004D6000302059DE50D450C700302063590E6A066
:1004E600E020E1F9C3E50D9440E50C940050088541
:1004F6000C0E850D0F8006750E00750F4090E6B93F
:10050600E0B4A335E4F50AF50BC3E50B950FE50A50
:10051600950E505EE509250BF582E508350AF5834B
:10052600E0FF7440250BF582E434E7F583EFF00530
:100536000BE50B70D4050A80D0E4F50AF50BC3E58C
:100546000B950FE50A950E50187440250BF582E4BD
:1005560034E7F58374CDF0050BE50B70E1050A80F1
:10056600DDAD0F7AE779407F40AB07AF09AE0812E1
:100576000FB8E490E68AF090E68BE50FF02509F5D2
:1005860009E50E3508F508C3E50D950FF50DE50CE3
:10059600950EF50C0204DA90E6B8E06440600302BA
:1005A6000635E50D450C7003020635E490E68AF043
:1005B60090E68BF090E6A0E020E1F990E68BE075FE
:1005C6000E00F50F90E6B9E0B4A335E4F50AF50B95
:1005D600C3E50B950FE50A950E50367440250BF5CD
:1005E60082E434E7F583E0FFE509250BF582E508AB
:1005F600350AF583EFF0050BE50B70D4050A80D0BC
:10060600AD0F7AE779407F40AB07AF09AE08121409
:10061600E2E50F2509F509E50E3508F508C3E50DF0
:10062600950FF50DE50C950EF50C0205A8D322C322
:0106360022A1
:01000A0032C3
:01000E0032BF
:1017BD00C0E0C2A1C28EE548F58BE547F58DD28E0E
:0517CD00D2A1D0E032C2
:10170400C28ED2A18E478F48E54845476009EFF560
:081714008BE547F58DD28E2212
:100E1300C0E0C083C082C0D075D018C2A4C2CFE5E1
:100E23003324FD604314606324026003020EC3E5B0
:100E33004A25E0FFE54933FE74372FF58274063EF9
:100E4300F583E493FE740193F5CAEEF5CB054AE509
:100E53004A70020549E52A152A70021529E52A4533
:100E630029705D75330380588532CA852FCBE523FE
:100E7300152370021522E5234522700B753304E513
:100E83004A154A7002154900008035E54A25E0FFFE
:100E9300E54933FE74372FF58274063EF583E493F8
:100EA300FE740193F5CAEEF5CBE54A45497009C2D4
:100EB300CFC2CA7533018008E54A154A7002154945
:0B0EC300D2A4D0D0D082D083D0E03287
:0E10AA00D20B7510967511887512007513DE45
:1010B800E533600664016002C322E511F532E510EC
:1010C800F52FE4F529F52AE52A25E0FFE52933FE81
:1010D80074372FF58274063EF583D3740193951106
:1010E800E49395105019C3EF9513EE95125010051F
:1010F8002AE52A70020529B4E0CDE529B401C8E53E
:101108002A152A70021529E52A25E0FFE52933FE6C
:10111800C3E5139FF523E5129EF522D3E5239472C8
:10112800E5229445400122A20B92A3E4F549F54A31
:1011380090063793FE740193FDF5CA8DCCEEF5CB7E
:09114800F5CD753302D2CAD322A1
:0C001E00E53360076401600375330422C1
:10115100E533600664016002C32230A5141210AAAF
:10116100E533B401FB30A50280597F647E0012147F
:101171009CC20B7510967511887512227513B912E0
:1011810010B820A507E533B401F88037753304E5BD
:1011910033B401FB7F647E0012149C1210AAE53364
:1011A100B401FB7F647E0012149CC20B751096750E
:1011B10011887512227513B91210B820A50AE533EA
:1011C100B401F8E4F533C322753304E533B401FB0C
:1011D1007F647E0012149CD20B7510967511887570
:0F11E10012007513161210B8E533B401FBD322B8
:10126E00C0E0C083C082C0D075D000C006C280C2AC
:10127E008CE54B25E024F7F582E43409F583E493FD
:10128E00FE740193F58AEEF58CD28CE53424FD6064
:10129E001714602714603124037032054BE54B643C
:1012AE000E702A7534038025E52515257002152448
:1012BE00E525452470177534048012E54B700575CD
:1012CE0034058009154B8005753401C28CD280D04F
:0A12DE0006D0D0D082D083D0E032D9
:0813B500C20B7511197512003D
:1013BD00E534600664016002C322C3E512941DE5A5
:1013CD001194005002C322D2A77534017F027E0012
:1013DD0012149CA20B9281E51224E2F525E511343D
:1013ED00FFF524E4F54B9009F793FE740193F58A0C
:0A13FD00EEF58CD28C753402D32279
:0C003600E53460076401600375340422A7
:101407001213B5E534B401FB7F147E0012149CE47B
:10141700F510D20B7511FA7512001213BDE534647D
:1014270001601C30A6F7753404E534B401FB7F1462
:101437007E0012149C1213B5E534B401FBD32205C8
:0E14470010E510C3940240CAC2A7E4F534C3F6
:011455002274
:10165600D2A1E4F513FBFD7F0A12180AE4F513FB89
:101666007D017F0112180AE4F513FB7D207F0E121F
:0D167600180AE4F513FB7DFF7F0F02180A30
:10180A00908000E513F0EBF0EDF0EFF0D2A0C2A06B
:01181A0022AB
:0D17D20053B1FB7F061217DF43B1047F0CFB
:0717DF00AE071FEE70FA22B5
:1017640043B10843B1047F0E1217DF53B1F77F0A68
:071774001217DF53B1FB2245
:0F182C0053B1FB53B1F77F041217D743B1082212
:10177B0053B1F71217D253B1FB7F041217DF43B1EA
:06178B00087F040217DFD5
:0E183B0043B1081217D253B1FB7F040217DF2E
:0F135D001217647FA012136CAF0212136CAF0350
:02136C00AD07CB
:10136E007C087F061217DFED25E0FD30D70543B16F
:10137E0008800353B1F77F041217DF43B1047F0ACD
:10138E001217DF53B1FB7F041217DFDCD543B10810
:10139E0075B4FD7F061217DF43B1047F0A1217DF03
:0613AE0053B1FB75B4FF12
:0113B4002216
:1015F60043B10875B4FD7C08AF041CEF601D7F087D
:101606001217DF43B104ED25E04408FD7F081217E9
:10161600DF53B1FB7F081217DF80DD75B4FFAF051E
:0116260022A1
:10171C00AB07AA06A90512135DAF0112136C1218C0
:08172C002C7F057E0002149CD5
:0416AF00AB07AA06D5
:1016B30012135D1217647FA112136C1215F6AD0796
:0816C30012183B12182CAF05B0
:0116CB0022FC
:06145600AB07AA06AC057D
:10145C00E4FD30080F7E000DEE2400F582E434002C
:10146C00F583EAF0AE050D74002EF582E43400F538
:10147C0083EBF0AF050D74002FF582E43400F58397
:10148C00ECF07A007B00AF261216E8AF2602158C22
:0A14E2008E108F118D128A138B14E7
:1014EC007F017E0012149CE4F515E515C39512508E
:1014FC00200511E511AE107002051014FFE514253E
:10150C0015F582E43513F583E0FD121456051580AC
:01151C00D9F5
:01151D0022AB
:0A0FB8008E108F118D128A138B1416
:100FC200E4FDF515300812E510FF7E000DEE240059
:100FD200F582E43400F583EFF0AE050D74002EF5D2
:100FE20082E43400F583E511F07A007B00AF26122B
:0D0FF20016E8AB14AA13AD12AF260216CC00
:10173400C0E0C083C082D2055391EF90E65D74018E
:08174400F0D082D083D0E03226
:10179100C0E0C083C0825391EF90E65D7404F0D045
:0617A10082D083D0E0328B
:1017A700C0E0C083C0825391EF90E65D7402F0D031
:0617B70082D083D0E03275
:10151E00C0E0C083C08290E680E030E70E853539AA
:10152E0085363A853F3D85403E800C853F39854066
:10153E003A85353D85363E5391EF90E65D7410F059
:07154E00D082D083D0E0320F
:10174C00C0E0C083C082D20A5391EF90E65D74086A
:08175C00F0D082D083D0E0320E
:10155500C0E0C083C08290E680E030E70E85353973
:1015650085363A853F3D85403E800C853F3985402F
:101575003A85353D85363E5391EF90E65D7420F012
:07158500D082D083D0E032D8
:01000F0032BE
:0100100032BD
:0100110032BC
:0100120032BB
:0100160032B7
:0100170032B6
:0100180032B5
:0100190032B4
:01001A0032B3
:01002A0032A3
:01002E00329F
:01002F00329E
:01003000329D
:01003100329C
:01003200329B
:01004200328B
:010046003287
:010047003286
:010048003285
:010049003284
:01004A003283
:01004E00327F
:01004F00327E
:01005000327D
:01005100327C
:01005200327B
:010FFF0032BF
:01187700323E
:01187800323D
:01187900323C
:01187A00323B
:01187B00323A
:01187C003239
:01187D003238
:01187E003237
:01187F003236
:101000001201000200000040B4048200000001024E
:1010100000010A06000200000040010009022E0043
:10102000010100A0320904000004FF0000000705D0
:101030000202000200070504020002000705860202
:101040000002000705880200020009022E000101CB
:1010500000A0320904000004FF000000070502029E
:10106000400000070504024000000705860240001A
:101070000007058802400000040309041203410030
:101080004E00540045004C0041004E0044001A033D
:1010900041004E00540045004C0041004E00440009
:0A10A000200043005400530000003C
:10162700300B0990E680E0440AF0800790E680E0FE
:101637004408F07FDC7E0512149C90E65D74FFF091
:0F16470090E65FF05391EF90E680E054F7F022C9
:10149C008E168F1790E600E054187012E517240191
:1014AC00FFE43516C313F516EF13F517801590E608
:1014BC0000E05418FFBF100BE51725E0F517E516F3
:1014CC0033F516E5171517AE16700215164E600596
:0614DC0012181B80EE2235
:08186F00E4F554D2E9D2AF22E6
:10158C0090E678E020E6F9C2E990E678E04480F055
:10159C00EF25E090E679F090E678E030E0F990E61F
:1015AC0078E04440F090E678E020E6F990E678E0C8
:0615BC0030E1D6D2E92265
:100ECE00A90790E678E020E6F9E554702390E678DD
:100EDE00E04480F0E925E090E679F08D4FAF03A96C
:100EEE00077550018A518952E4F553755401D32286
:020EFE00C3220D
:1015C200A90790E678E020E6F9E554702590E678E0
:1015D200E04480F0E925E0440190E679F08D4FAFD8
:1015E20003A9077550018A518952E4F553755403D2
:0415F200D322C3221B
:03004B00020C3272
:100C3200C0E0C083C082C085C084C086758600C003
:100C4200D075D000C000C001C002C003C006C007FA
:100C520090E678E030E206755406020D1C90E678C4
:100C6200E020E10CE55464026006755407020D1C95
:100C7200E55424FE605F14603624FE7003020D0DFD
:100C820024FC7003020D1924086003020D1CAB50F2
:100C9200AA51A952AF5305538F827583001212E8ED
:100CA20090E679F0E553654F7070755405806B904E
:100CB200E679E0AB50AA51A952AE538E82758300F9
:100CC200121315755402E54F6401704E90E678E0F8
:100CD2004420F08045E54F24FEB5530790E678E0C6
:100CE2004420F0E54F14B5530A90E678E04440F012
:100CF20075540090E679E0AB50AA51A952AE538EDA
:100D0200827583001213150553800F90E678E04434
:100D120040F075540080037554005391DFD007D022
:100D220006D003D002D001D000D0D0D086D084D05B
:080D320085D082D083D0E032AD
:02168300A907B5
:10168500AE4CAF4D8F828E83A3E064037017AD011E
:1016950019ED7001228F828E83E07C002FFDEC3ED8
:0916A500FEAF0580DF7E007F002E
:0116AE002219
:1016CC001215C2E55424FA600E146006240770F358
:0C16DC00D322E4F554D322E4F554D322C9
:1016E800120ECEE55424FA600E146006240770F337
:0C16F800D322E4F554D322E4F554D322AD
:10181B007400F58690FDA57C05A3E582458370F9E0
:01182B00229A
:0300030002000AEE
:03000B0002126E70
:0300130002000EDA
:03001B000217BD0C
:03002B00020E13AF
:03004300020F00A9
:03005300020F0099
:100F0000021734000217A7000217910002174C00C5
:100F100002151E000215550002000F00020010000D
:100F20000200110002001200020016000200170069
:100F3000020018000200190002001A0002002A0034
:100F400002002E000200100002002F0002003000FC
:100F5000020031000200320002004200020046009E
:100F60000200470002001000020010000200100002
:100F7000020048000200490002004A0002004E0040
:100F800002004F0002005000020051000200520017
:100F9000020FFF000218770002187800021879008B
:100FA00002187A0002187B0002187C0002187D00EB
:080FB00002187E0002187F0008
:030000000218499A
:0C184900787FE4F6D8FD7581560211F09E
:1012E800BB010CE58229F582E5833AF583E02250BB
:1012F80006E92582F8E622BBFE06E92582F8E22205
:0D130800E58229F582E5833AF583E493221E
:10131500F8BB010DE58229F582E5833AF583E8F00E
:10132500225006E92582C8F622BBFE05E92582C8BA
:02133500F222A2
:10133700D083D082F8E4937012740193700DA3A345
:1013470093F8740193F5828883E473740293686059
:06135700EFA3A3A380DF59
:00000001FF
